:100000000C94DB000C9403010C9403010C94030189
:100010000C9403010C9403010C9403010C94030150
:100020000C9403010C9403010C9403010C94030140
:100030000C9403010C9403010C9403010C94030130
:100040000C94EF1E0C9403010C945F1F0C94391F49
:100050000C9403010C9403010C9403010C94030110
:100060000C94911F0C94030100407A10F35A00A0E5
:10007000724E18090010A5D4E80000E87648170071
:1000800000E40B54020000CA9A3B000000E1F505B1
:10009000000080969800000040420F000000A086FB
:1000A00001000000102700000000E803000000002D
:1000B0006400000000000A000000000001000000D1
:1000C00000002C76D888DC674F0823DFC1DFAE59EB
:1000D000E1B1B796E5E3E453C63AE651997696E87E
:1000E000E6C28426EB898C9B62ED407C6FFCEFBC02
:1000F0009C9F40F2BAA56FA5F490055A2AF75C932D
:100100006B6CF9676DC11BFCE0E40D47FEF520E662
:10011000B500D0ED902E0300943577050080841E45
:10012000080000204E0A000000C80C333333330FA0
:10013000986E12831141EF8D2114893BE65516CF3D
:10014000FEE6DB18D1844B381BF77C1D901DA4BB49
:10015000E424203284725E228100C9F124ECA1E5FE
:100160003D27000000080002010000030407000012
:1001700000000000000000000000250028002B0007
:1001800000000000240027002A00040404040404E2
:100190000404020202020202030303030303010236
:1001A0000408102040800102040810200102040805
:1001B0001020B020CA2211241FBECFEFD8E0DEBF2E
:1001C000CDBF25E0AEE6B3E001C01D92A036B20778
:1001D000E1F713E0A0E0B1E0EEECF4E502C0059039
:1001E0000D92AE36B107D9F710E0CAEDD0E004C0E9
:1001F0002197FE010E945928C93DD107C9F70E94E5
:100200001A210C945A2A0C940000FC01A089B1898F
:1002100082E08C93A485B5851C92A685B7858FEC6A
:100220008C93108EA489B58986E08C93A289B389BA
:100230008C9180618C93A289B3898C9188608C9316
:10024000A289B3898C9180688C930288F389E02D10
:1002500080818F7D8083089590E0FC01E256FE4FFF
:10026000249186579E4FFC018491882399F090E059
:10027000880F991FFC01E058FE4FA591B491FC0135
:10028000EA58FE4F859194918FB7F894EC91E22B48
:10029000EC938FBF089590E0FC01EE59FE4F24913E
:1002A000FC01E256FE4F3491FC01E657FE4FE4910B
:1002B000EE23C9F0222339F0233001F1A8F42130D4
:1002C00019F1223029F1F0E0EE0FFF1FEA58FE4F3E
:1002D000A591B4918FB7F894EC91611126C0309537
:1002E0003E233C938FBF08952730A9F02830C9F0F2
:1002F000243049F7809180008F7D03C08091800079
:100300008F7780938000DFCF84B58F7784BDDBCF7C
:1003100084B58F7DFBCF8091B0008F778093B00044
:10032000D2CF8091B0008F7DF9CF3E2BDACF8E30C7
:1003300008F08E508770806480937C0080917A00F2
:10034000806480937A0080917A0086FDFCCF809152
:1003500078009091790008953FB7F8948091150442
:1003600090911604A0911704B091180426B5A89B8B
:1003700005C02F3F19F00196A11DB11D3FBFBA2F37
:10038000A92F982F8827BC01CD01620F711D811DF7
:10039000911D42E0660F771F881F991F4A95D1F77C
:1003A00008958F929F92AF92BF92CF92DF92EF9279
:1003B000FF924B015C010E94AC016B017C010E9429
:1003C000AC016C197D098E099F09683E7340810557
:1003D0009105A8F321E0821A9108A108B10888EEDE
:1003E000C80E83E0D81EE11CF11C81149104A10405
:1003F000B10429F7FF90EF90DF90CF90BF90AF90BE
:100400009F908F9008952FB7F89460911104709188
:10041000120480911304909114042FBF089508953D
:1004200008950895DB0114964D915C9115976D9197
:100430007C91DC01ED91FC910280F381E02D099427
:10044000AF92BF92CF92DF92EF92FF920F931F93E2
:10045000CF93DF936C017B018B01040F151FEB0120
:100460005E01AE18BF08C017D10759F06991D601D7
:10047000ED91FC910190F081E02DC6010995892B49
:1004800079F7C501DF91CF911F910F91FF90EF9008
:10049000DF90CF90BF90AF900895FC01538D448DB5
:1004A000252F30E0842F90E0821B930B541710F01F
:1004B000CF96089501970895FC01918D828D98172C
:1004C00061F0A28DAE0FBF2FB11D5D968C91928D04
:1004D0009F5F9F73928F90E008958FEF9FEF089535
:1004E000FC01918D828D981731F0828DE80FF11DFE
:1004F000858D90E008958FEF9FEF0895FC01918D19
:10050000228D892F90E0805C9F4F821B91098F7311
:10051000992708958BE894E00E947E0221E0892BC0
:1005200009F420E0822F089580E090E0892B29F0E3
:100530000E948A0281110C9400000895FC01A48D90
:10054000A80FB92FB11DA35ABF4F2C91848D90E0F5
:1005500001968F739927848FA689B7892C93A089D8
:10056000B1898C91837080648C93938D848D981362
:1005700006C00288F389E02D80818F7D80830895F5
:10058000EF92FF920F931F93CF93DF93EC0181E0E3
:10059000888F9B8D8C8D98131AC0E889F98980818A
:1005A00085FF15C09FB7F894EE89FF896083E889BD
:1005B000F98980818370806480839FBF81E090E0AF
:1005C000DF91CF911F910F91FF90EF900895F62E3C
:1005D0000B8D10E00F5F1F4F0F731127E02E8C8DD6
:1005E0008E110CC00FB607FCFACFE889F98980811B
:1005F00085FFF5CFCE010E949E02F1CFEB8DEC0F6F
:10060000FD2FF11DE35AFF4FF0829FB7F8940B8F37
:10061000EA89FB8980818062CFCF6FEF8BE894E01D
:100620000C94C002CF93DF93EC01888D8823B9F03E
:10063000AA89BB89E889F9898C9185FD03C08081ED
:1006400086FD0DC00FB607FCF7CF8C9185FFF2CF6A
:10065000808185FFEDCFCE010E949E02E9CFDF9120
:10066000CF9108952091BA03260F3327331F2132EB
:100670003105ECF42091DE03FC0190E080E02430B1
:1006800069F082E00895A091BA032191AC01465629
:100690005C4FA40FB52FB11D2C930196861798F3CC
:1006A0008091BA03680F6093BA0380E0089581E0F7
:1006B00008951092DE0381E08093E0031092DF033F
:1006C00061E082E10E944B0161E083E10E944B0105
:1006D000E9EBF0E080818E7F808380818D7F808355
:1006E00088E48093B80085E48093BC000895089561
:1006F000E0910B0480910A04E81730F4F0E0EC5824
:10070000FC4F808190E008958FEF9FEF08959091C6
:100710000B0480910A042FEF3FEF981748F4E92F5C
:10072000F0E0EC58FC4F208130E09F5F90930B0489
:10073000C901089580910A0490910B04891B990BBB
:100740000895CF93DF93CB01EA01642F0E94320317
:10075000CE01DF91CF910895CF93DF931F92CDB754
:10076000DEB7698361E0CE0101960E94320381E029
:1007700090E00F90DF91CF91089590E080E0089590
:1007800060E083E00C944B01CF93DF93009721F45A
:10079000DF91CF910C94C003EC0183E00E942C0107
:1007A000CF3FD10531F461E083E0DF91CF910C942C
:1007B0004B01E5E6F1E0E491E33031F148F4E1305A
:1007C000B9F0E230E1F0C038D1056CF760E0ECCF71
:1007D000E73021F1E83051F1E430A9F78091800051
:1007E000806280938000D0938B00C0938A0004C005
:1007F00084B5806884BDC7BDDF91CF91089584B56D
:10080000806284BDC8BDF8CF8091800080688093ED
:100810008000D0938900C0938800EECF8091B00013
:1008200080688093B000C093B300E6CF8091B000A1
:1008300080628093B000C093B400DECFCF92DF928D
:10084000EF92FF920F931F93CF93DF93FC018C01E4
:10085000DC0130E020E02F5F3F4FED01C90186173A
:10086000970784F44D915C911197EA80FB80E41620
:10087000F5062CF41196FC92EE925B834A83019666
:100880002296EDCF12966217730729F78081918126
:10089000A1E0B0E041E050E061E070E07801E80103
:1008A000C990D9908E01E701EA80FB80EC14FD0429
:1008B000D1F44F5F5F4F11962A173B0779F7641702
:1008C000750744F421503048220F331FE20FF31F05
:1008D00080819181DF91CF911F910F91FF90EF90D7
:1008E000DF90CF9008956417750714F4C601BA011C
:1008F00041E050E0E0CFFB0101900020E9F73197A3
:10090000AF01461B570BDC01ED91FC910280F38196
:10091000E02D09940C947B0466E471E08BE894E08C
:100920000E948A040E940D030E940D030C940D0383
:100930000F931F93CF93DF938C01EB01FC01808118
:1009400091810097E1F06881798161157105A9F0C5
:10095000428153812C813D814217530770F00E94E0
:10096000532A8C819D81F801958384831D821C828A
:10097000DF91CF911F910F9108950E94FB288881EC
:100980009981F801918380838A819B8193838283FB
:100990008C819D8195838483198218821B821A829F
:1009A000E5CFCF93DF93EC0188819981009711F017
:1009B0000E94FB28198218821D821C821B821A82C7
:1009C000DF91CF910895FC0180819181009711F012
:1009D0000C94FB2808950F931F93CF93DF93EC01A2
:1009E00088819981009759F02A813B812617370722
:1009F00030F081E0DF91CF911F910F9108958B012D
:100A00006F5F7F4F0E948429009759F099838883F4
:100A10001B830A832C813D81232B59F7FC01108213
:100A2000E8CF80E0E7CFEF92FF920F931F93CF9331
:100A3000DF938C017B01FB0101900020E9F73197E6
:100A4000E61BF70BD1F0DC011496CD91DC91CE0FB3
:100A5000DF1FBE010E94EB048823B9F0F80120815A
:100A6000318184819581B701820F931F0E94532A9F
:100A7000D8011596DC93CE931497C801DF91CF91DE
:100A80001F910F91FF90EF900895C8010E94D1042B
:100A9000F4CFCF92DF92EF92FF920F931F93CF93F9
:100AA000DF93CDB7DEB728970FB6F894DEBF0FBE41
:100AB000CDBF7C01CB014AE09E012F5F3F4F690112
:100AC000B9010E942B23F60101900020E9F731972C
:100AD000EC19FD09D9F0D70114960D911C910E0F58
:100AE0001F1FB801C7010E94EB048823F9F0F7012A
:100AF0002081318184819581B601820F931F0E94EC
:100B0000532AD70115961C930E931497C701289664
:100B10000FB6F894DEBF0FBECDBFDF91CF911F910E
:100B20000F91FF90EF90DF90CF900895C7010E9442
:100B3000D104ECCFEF92FF920F931F93CF93DF93EB
:100B4000EC017B018A01BA010E94EB0481110BC008
:100B5000CE010E94D104CE01DF91CF911F910F9160
:100B6000FF90EF9008951D830C83B70188819981D0
:100B70000E94532AF0CFFB0101900020E9F7319742
:100B8000AF01461B570B0C949A05CF93DF93EC01F2
:100B9000FB018617970749F0608171816115710526
:100BA00041F0448155810E949A05CE01DF91CF9199
:100BB00008950E94D104F9CF8F929F92AF92BF9275
:100BC000EF92FF920F931F93CF93DF93CDB7DEB7D2
:100BD000A1970FB6F894DEBF0FBECDBF4A015B01EF
:100BE000BC0180E395E00E94C50580923605909295
:100BF0003705A0923805B092390560E375E0809121
:100C00002E0590912F050E94120261E571E08091FE
:100C10002E0590912F050E948A04E0902E05F090F9
:100C20002F052091360530913705409138055091B8
:100C3000390519A28E010F5D1F4F8AE0882E912C75
:100C4000A12CB12CCA01B901A50194010E94372839
:100C5000605DF80162938F01211531054105510551
:100C600089F7309721F0BF01C7010E947B0463E53B
:100C700071E080912E0590912F050E948A04A19623
:100C80000FB6F894DEBF0FBECDBFDF91CF911F919D
:100C90000F91FF90EF90BF90AF909F908F9008952D
:100CA000CF93DF93EB01BC0180E395E00E94C50583
:100CB000BE018AE395E00E94C50580913E059091B2
:100CC0003F05C0912E05D0912F05892BC9F067E50E
:100CD00071E080913A0590913B050E944A2A892B48
:100CE00079F460E375E0CE010E94120263E571E0E1
:100CF00080912E0590912F05DF91CF910C948A045D
:100D000060E375E0CE010E9412026BE571E0809114
:100D10002E0590912F050E948A046AE375E0809168
:100D20002E0590912F050E9412026CE571E08091D2
:100D30002E0590912F050E948A04D8CFFC011182C4
:100D4000108213821282158214820C94C505FC0154
:100D5000118210821382128215821482FB0101908B
:100D60000020E9F73197AF01461B570B0C949A0509
:100D70000F931F93CF93DF93CDB7DEB762970FB674
:100D8000F894DEBF0FBECDBF6091140170911501C4
:100D9000809116019091170107E214E027E04AE0E4
:100DA0000E94E622B801CE010D960E94A706BE0160
:100DB000635F7F4FCE0107960E949E066EE571E04D
:100DC000CE0101960E94A706BE01695F7F4FCE014A
:100DD00001960E945006CE0101960E94E304CE01C6
:100DE00007960E94E30460911001709111018091B7
:100DF00012019091130127E04AE00E94E622B80117
:100E0000CE0101960E94A706BE016F5F7F4FCE0103
:100E10000D960E949804CE0101960E94E304BE0143
:100E2000635F7F4FCE0107960E949E0665E671E0E4
:100E3000CE0101960E94A706BE01695F7F4FCE01D9
:100E400001960E945006CE0101960E94E304CE0155
:100E500007960E94E3046091180170911901809136
:100E60001A0190911B0127E04AE00E94E622B80196
:100E7000CE0101960E94A706BE016F5F7F4FCE0193
:100E80000D960E949804CE0101960E94E304BE01D3
:100E9000635F7F4FCE0107960E949E066CE671E06D
:100EA000CE0101960E94A706BE01695F7F4FCE0169
:100EB00001960E945006CE0101960E94E304CE01E5
:100EC00007960E94E304CE010D960E94E304629609
:100ED0000FB6F894DEBF0FBECDBFDF91CF911F914B
:100EE0000F910895CF92DF92EF92FF92CF93DF930D
:100EF00000D000D000D0CDB7DEB760910E01709168
:100F00000F01072E000C880B990B0E94B32523E3D9
:100F100033E343E250E40E948A270E94FC276B01DE
:100F2000770FEE08FF0864E771E0CE0101960E949A
:100F3000A706B701A601CE0101960E94DC05CE01ED
:100F400001960E94E30460910C0170910D01072E3F
:100F5000000C880B990B0E94B32523E333E343E293
:100F600050E40E948A270E94FC276B01770FEE084D
:100F7000FF086BE771E0CE0101960E94A706B7015A
:100F8000A601CE0101960E94DC05CE0101960E94C9
:100F9000E304C0900A01D0900B010D2C000CEE0868
:100FA000FF0862E871E0CE0101960E94A706B70132
:100FB000A601CE0101960E94DC05CE0101960E9499
:100FC000E3046091080170910901072E000C880B61
:100FD000990B0E94B32523E333E343E250E40E94DC
:100FE0008A270E94FC276B01770FEE08FF0869E84B
:100FF00071E0CE0101960E94A706B701A601CE01BD
:1010000001960E94DC05CE0101960E94E30426961B
:101010000FB6F894DEBF0FBECDBFDF91CF91FF902A
:10102000EF90DF90CF900895CF93DF93CDB7DEB7E9
:101030002C970FB6F894DEBF0FBECDBF8091190478
:1010400090911A0460E971E0892B09F068C0CE0123
:1010500001960E94A70640EE57E060E070E0CE01E6
:1010600001960E94DC05CE0101960E94E30467E927
:1010700071E0CE0107960E94A7066FE971E0CE01EC
:1010800001960E94A706BE01695F7F4FCE010196BF
:101090000E945006CE0101960E94E304CE010796FD
:1010A0000E94E30480910401909105016FEA71E0D0
:1010B000019709F047C0CE0101960E94A70640EEB5
:1010C00057E060E070E0CE0101960E94DC05CE01A1
:1010D00001960E94E30467E971E0CE0107960E9441
:1010E000A70666EB71E0CE0101960E94A706BE013D
:1010F000695F7F4FCE0101960E945006CE01019696
:101100000E94E304CE0107960E94E3042C960FB6DA
:10111000F894DEBF0FBECDBFDF91CF910895CE0111
:1011200001960E94A70640EE5FEF60E070E0CE01FE
:1011300001960E94DC05CE0101960E94E30466EA56
:1011400071E097CFCE0101960E94A70640EE5FEFB7
:1011500060E070E0CE0101960E94DC05CE010196B0
:101160000E94E30466EA71E0B8CFCF93DF93CDB776
:10117000DEB72C970FB6F894DEBF0FBECDBF8091BF
:101180000201909103016DEB71E0892B09F09CC085
:10119000CE0101960E94A70640EE57E060E070E0A5
:1011A000CE0101960E94DC05CE0101960E94E30467
:1011B00067E971E0CE0107960E94A70664EC71E032
:1011C000CE0101960E94A706BE01695F7F4FCE0146
:1011D00001960E945006CE0101960E94E304CE01C2
:1011E00007960E94E30480910601909107016BEC41
:1011F00071E0892B09F07BC0CE0101960E94A70601
:1012000040EE57E060E070E0CE0101960E94DC0500
:10121000CE0101960E94E30467E971E0CE010796D2
:101220000E94A70662ED71E0CE0101960E94A7061A
:10123000BE01695F7F4FCE0101960E945006CE012C
:1012400001960E94E304CE0107960E94E304809178
:101250001B0490911C0469ED71E0892B09F05AC0C0
:10126000CE0101960E94A70640EE57E060E070E0D4
:10127000CE0101960E94DC05CE0101960E94E30496
:1012800060EE71E0CE0107960E94A70667EE71E05E
:10129000CE0101960E94A706BE01695F7F4FCE0175
:1012A00001960E945006CE0101960E94E304CE01F1
:1012B00007960E94E3042C960FB6F894DEBF0FBE8B
:1012C000CDBFDF91CF910895CE0101960E94A70670
:1012D00040EE5FEF60E070E0CE0101960E94DC0519
:1012E000CE0101960E94E30466EA71E063CFCE016D
:1012F00001960E94A70640EE5FEF60E070E0CE012D
:1013000001960E94DC05CE0101960E94E30466EA84
:1013100071E084CFCE0101960E94A70640EE57E00F
:1013200060E070E0CE0101960E94DC05CE010196DE
:101330000E94E3046EEE71E0A5CFCF93DF93CDB7AB
:10134000DEB72C970FB6F894DEBF0FBECDBF8091ED
:1013500023049091240465EF71E0892B09F09CC06F
:10136000CE0101960E94A70640EE57E060E070E0D3
:10137000CE0101960E94DC05CE0101960E94E30495
:1013800067E971E0CE0107960E94A7066CEF71E055
:10139000CE0101960E94A706BE01695F7F4FCE0174
:1013A00001960E945006CE0101960E94E304CE01F0
:1013B00007960E94E304809165049091660463E0BF
:1013C00072E0892B09F07BC0CE0101960E94A7062E
:1013D00040EE57E060E070E0CE0101960E94DC052F
:1013E000CE0101960E94E30467E971E0CE01079601
:1013F0000E94A7066AE072E0CE0101960E94A7064D
:10140000BE01695F7F4FCE0101960E945006CE015A
:1014100001960E94E304CE0107960E94E3048091A6
:1014200025049091260461E172E0892B09F05AC0ED
:10143000CE0101960E94A70640EE57E060E070E002
:10144000CE0101960E94DC05CE0101960E94E304C4
:1014500067E971E0CE0107960E94A70668E172E095
:10146000CE0101960E94A706BE01695F7F4FCE01A3
:1014700001960E945006CE0101960E94E304CE011F
:1014800007960E94E3042C960FB6F894DEBF0FBEB9
:10149000CDBFDF91CF910895CE0101960E94A7069E
:1014A00040EE5FEF60E070E0CE0101960E94DC0547
:1014B000CE0101960E94E30466EA71E063CFCE019B
:1014C00001960E94A70640EE5FEF60E070E0CE015B
:1014D00001960E94DC05CE0101960E94E30466EAB3
:1014E00071E084CFCE0101960E94A70640EE5FEF27
:1014F00060E070E0CE0101960E94DC05CE0101960D
:101500000E94E30466EA71E0A5CFCF92DF92EF92EA
:10151000FF92CF93DF9300D000D000D0CDB7DEB7DD
:1015200080910401909105016FE172E0019711F043
:101530006BE272E08BE894E00E948A040E940D0343
:101540000E940D030E940D038091040190910501FA
:10155000019709F059C06091080170910901072EA7
:10156000000C880B990B0E94B32523E333E343E27D
:1015700050E40E948A270E94FC276B01770FEE0837
:10158000FF0867E372E0CE0101960E94A706B7014B
:10159000A601CE0101960E94DC05CE0101960E94B3
:1015A000E3046091080170910901072E000C880B7B
:1015B000990B0E94B32523E333E343E250E40E94F6
:1015C0008A270E94FC276B01770FEE08FF0864E76B
:1015D00071E0CE0101960E94A706B701A601CE01D7
:1015E00001960E94DC05CE0101960E94E304269636
:1015F0000FB6F894DEBF0FBECDBFDF91CF91FF9045
:10160000EF90DF90CF90089580910C0190910D01A3
:101610009093090180930801EACFCF93DF9385ED82
:101620008093BC008091960390919703A0919803BA
:10163000B09199030796A11DB11D23E0B695A7951A
:10164000979587952A95D1F72091BC0024FD03C07A
:101650001092DE0336C0409196035091970360913B
:10166000980370919903452B462B472B69F30097FC
:10167000A105B10541F02AE22A95F1F700C00197D2
:10168000A109B109E1CF8091950391E09093940372
:101690008823B9F0C091B800D091BA008091BC0005
:1016A0008A7B8093BC0060E082E10E944B0160E095
:1016B00083E10E944B010E945903D093BA00C0936A
:1016C000B800DF91CF9108950F931F93CF93DF93CD
:1016D0008C01EB010E94D0268883C80101960E94EC
:1016E000D0268983CE01DF91CF911F910F9108956C
:1016F000CF92DF92EF92FF920F931F93CF93DF93DE
:10170000EB017B0124E0E20EF11C8B016C01C61A97
:10171000D70AC601800F911F0E94D026F80181933D
:101720008F01EE15FF05A9F7CE01DF91CF911F9133
:101730000F91FF90EF90DF90CF9008958F929F923E
:10174000AF92BF92CF92DF92EF92FF920F931F93CF
:10175000CF93DF93CDB7DEB76E970FB6F894DEBFA9
:101760000FBECDBF64E673E0CE010D960E94A706C2
:1017700064E673E0CE0143960E94A706198E1A8E86
:101780001B8E1C8E1E8E1D8E80911D0490911E043A
:10179000019709F028C110921E0410921D046EE3F7
:1017A00072E0CE0107960E94A7066CE472E0CE01BB
:1017B00001960E94A706BE01695F7F4FCE01019688
:1017C0000E945006CE0101960E94E304CE010796C6
:1017D0000E94E3046EEE71E0CE0107960E94A70618
:1017E0006CEF71E0CE0101960E94A706BE01695F11
:1017F0007F4FCE0101960E945006CE0101960E94B5
:10180000E304CE0107960E94E30480911D049091A9
:101810001E04892B09F40BC19EEBC92ED12CF12C8F
:10182000E12C62E672E0CE010D960E94BB05BE017E
:10183000635F7F4FCE0101960E949E06B701CE01E5
:1018400001960E944905BC01CE010D960E94C50576
:10185000CE0101960E94E304BE01635F7F4FCE017B
:1018600001960E949E0669E372E0CE0101960E94F5
:101870001305BC01CE010D960E94C505CE0101964F
:101880000E94E30462E572E0CE0143960E94BB052C
:10189000BE016D5E7F4FCE0101960E949E06B7018C
:1018A000CE0101960E944905BC01CE0143960E94DB
:1018B000C505CE0101960E94E304BE016D5E7F4F17
:1018C000CE0101960E949E066FE472E0CE01019661
:1018D0000E941305BC01CE0143960E94C505CE01AE
:1018E00001960E94E3048AE0C80ED11CBE01635E2B
:1018F0007F4FC6010E94640BBE01675E7F4FC60129
:1019000002960E94780B698D7A8D8B8D9C8D07E2F3
:1019100014E027E04AE00E94E622B801CE010196D9
:101920000E94A706BE016F5F7F4F89E794E00E9487
:101930009804CE0101960E94E3048D8C9E8C092CA4
:10194000000CAA08BB08BE01635F7F4FCE01019661
:101950000E949E06B501A401CE0101960E94DC05FD
:10196000CE0101960E94E30469E774E0CE01079678
:101970000E949E06BE016D5E7F4FCE0101960E94C1
:101980009E06BE01695F7F4FCE0101960E94500600
:10199000CE0101960E94E304CE0107960E94E30463
:1019A0008FEFE81AF80A88E0E816F10409F039CF59
:1019B000CE0143960E94E304CE010D960E94E304FB
:1019C0006E960FB6F894DEBF0FBECDBFDF91CF91FC
:1019D0001F910F91FF90EF90DF90CF90BF90AF904D
:1019E0009F908F90089581E090E090931E048093E3
:1019F0001D0464E572E0CE0107960E94A7066CE420
:101A000072E0CE0101960E94A706BE01695F7F4F7A
:101A1000CE0101960E945006CE0101960E94E30479
:101A2000CE0107960E94E30460EE71E0D5CE8AE510
:101A3000C82ED12CF4CEFF920F931F93CF93DF9338
:101A4000EC018B01FB01F0800E94D026F81621F0FA
:101A50006F2DCE010E94D826F801F1802196CE018B
:101A60000E94D026F81621F06F2DCE010E94D826B4
:101A7000C801DF91CF911F910F91FF9008959F9220
:101A8000AF92BF92CF92DF92EF92FF920F931F938C
:101A9000CF93DF935C017B018B01D0E0C0E0F801C4
:101AA00091908F016501CC0EDD1EC6010E94D026EB
:101AB000981621F0692DC6010E94D8262196C430BF
:101AC000D10569F7C701DF91CF911F910F91FF9069
:101AD000EF90DF90CF90BF90AF909F900895AF921E
:101AE000BF92CF92DF92EF92FF920F931F93CF930B
:101AF000DF9300D000D000D0CDB7DEB70DB71EB752
:101B00008DB79EB7845F91400FB6F8949EBF0FBE0D
:101B10008DBFEDB7FEB731966F017F01ADB6BEB692
:101B2000FBE0AF1AFEEFBF0A82E10E949701F701C6
:101B3000819391937F01AE16BF06B1F76AEF70E013
:101B4000C6010E941E04BC01990F880B990B0E94CC
:101B5000B32525EE3FEF4FE95BE30E941226609329
:101B600070037093710380937203909373032091B9
:101B700014013091150140911601509117010E94F6
:101B80001D27209118013091190140911A0150919F
:101B90001B010E948A270E94FC27643B7105A4F563
:101BA0006C547F4F70936F0360936E03C0906E030D
:101BB000D0906F030D2C000CEE08FF0864E672E075
:101BC000CE0101960E94A706B701A601CE0101969B
:101BD0000E94DC05CE0101960E94E3040FB6F89442
:101BE0001EBF0FBE0DBF26960FB6F894DEBF0FBE08
:101BF000CDBFDF91CF911F910F91FF90EF90DF90BC
:101C0000CF90BF90AF900895645B7109CBCF4F9296
:101C10005F926F927F928F929F92AF92BF92CF927C
:101C2000DF92EF92FF920F931F93CF93DF9300D039
:101C300000D000D0CDB7DEB76B017C01809070037F
:101C400090907103A0907203B09073038091190477
:101C500090911A04019709F093C000910C01109122
:101C60000D01A7019B01C501B4010E94AC2587FFAE
:101C70006CC0C8010E94C40361E08CE00E944B016B
:101C8000A7019601609170037091710380917203B6
:101C9000909173030E94AC2587FF03C00E946F0DD3
:101CA000EFCF60E08CE00E944B0180912104909185
:101CB00022040E94C4036BE672E0CE0101960E94EA
:101CC000A70640E050E0BA01CE0101960E94DC0573
:101CD000CE0101960E94E30467E372E0CE01019613
:101CE0000E94A70640E050E0BA01CE0101960E9492
:101CF000DC05CE0101960E94E3046BE771E0CE01A2
:101D000001960E94A70640E050E0BA01CE0101967C
:101D10000E94DC05CE0101960E94E30426960FB6D0
:101D2000F894DEBF0FBECDBFDF91CF911F910F9111
:101D3000FF90EF90DF90CF90BF90AF909F908F90EB
:101D40007F906F905F904F900895C8010E94C403E8
:101D500061E088E00E944B01A70196016091700349
:101D60007091710380917203909173030E943228E5
:101D700018161CF40E946F0DEFCF60E088E093CF3F
:101D800060910A0170910B01072E000C880B990BD2
:101D90000E94B325209118013091190140911A0138
:101DA00050911B010E9412262B013C0100910E0153
:101DB00010910F01A7019601C501B4010E94AC2545
:101DC000A301920187FF79C0C501B4010E941E27BB
:101DD0004B015C01AC019B01C701B6010E94AC251F
:101DE00087FF18C0C8010E94C40361E08CE00E9414
:101DF0004B01A7019601609170037091710380916E
:101E00007203909173030E94AC2587FF4FC00E941C
:101E10006F0DEFCFC8010E94C40361E08CE00E9407
:101E20004B01A50194016091700370917103809141
:101E30007203909173030E94AC2587FF03C00E9438
:101E40006F0DEFCF80910C0190910D010E94C403A2
:101E5000A3019201C701B6010E941D279B01AC019D
:101E6000609170037091710380917203909173037C
:101E70000E94AC2587FF03C00E946F0DE9CF8091BF
:101E80000E0190910F010E94C403A7019601609179
:101E900070037091710380917203909173030E949B
:101EA000AC2587FF03C00E946F0DEFCF60E08CE090
:101EB0000E944B010E94C003FECEC501B4010E94E6
:101EC0001D274B015C01AC019B01C701B6010E94BB
:101ED000322887FD19C0C8010E94C40361E08CE06C
:101EE0000E944B01A70196016091700370917103EC
:101EF00080917203909173030E94322818160CF09F
:101F00004FC00E946F0DEECFC8010E94C40361E074
:101F100088E00E944B01A5019401609170037091CB
:101F2000710380917203909173030E9432281816F6
:101F30001CF40E946F0DEFCF80910C0190910D0168
:101F40000E94C403A7019601C301B2010E941E278B
:101F50009B01AC01609170037091710380917203D9
:101F6000909173030E94322818161CF40E946F0D82
:101F7000E9CF80910E0190910F010E94C403A70147
:101F8000960160917003709171038091720390913A
:101F900073030E94322818161CF40E946F0DEFCFB5
:101FA00060E088E085CF8F929F92AF92BF92CF92F0
:101FB000DF92EF92FF920F931F93CF93DF93CDB7F2
:101FC000DEB7C85CD1090FB6F894DEBF0FBECDBF37
:101FD0008E010F5F1F4F7E0185E6E80EF11C580150
:101FE0004E01E9EC8E0E911C670182E10E9497017F
:101FF000F601819391936F01E815F905B1F762E35A
:1020000070E0C7010E941E04F801819391938F0133
:10201000EE15FF0549F762E370E0C5010E941E045A
:10202000C853DF4F0FB6F894DEBF0FBECDBFDF91B0
:10203000CF911F910F91FF90EF90DF90CF90BF90C5
:10204000AF909F908F900895EF92FF920F931F9300
:10205000CF93DF93CDB7DEB7A0970FB6F894DEBF6E
:102060000FBECDBF18A21F8E64E673E0CE01499665
:102070000E94A70680916B0490916C04892B09F44F
:1020800081C09EEBE92EF12C10E000E08AE0E80E22
:10209000F11C62E772E0CE0149960E94BB05BE01C9
:1020A000675E7F4FCE0101960E949E06B801CE0169
:1020B00001960E944905BC01CE0149960E94C505C2
:1020C000CE0101960E94E304BE01675E7F4FCE0100
:1020D00001960E949E066FE472E0CE0101960E9476
:1020E0001305BC01CE0149960E94C505CE0101969B
:1020F0000E94E304BE01615E7F4FC7010E94640B32
:102100008F8D98A11C8A1B8A1E8A1D8A188E1F8A91
:102110004AE0BE016F5F7F4F0E942B23BE016F5FBD
:102120007F4FCE0143960E94BB05BE01675E7F4F85
:10213000CE0101960E949E06BE016D5E7F4FCE01CC
:1021400001960E945006CE0101960E94E304CE0142
:1021500043960E94E3040F5F1F4F0830110509F0FA
:1021600095CFCE0149960E94E304A0960FB6F8944D
:10217000DEBF0FBECDBFDF91CF911F910F91FF90BA
:10218000EF9008958AE5E82EF12C7ECFCF93DF9370
:10219000CDB7DEB72C970FB6F894DEBF0FBECDBF1C
:1021A00064E772E08BE894E00E948A040E940D03C9
:1021B0000E940D030E940D0380916B0490916C04AA
:1021C0006EE372E0009721F00197D9F464E572E0C4
:1021D000CE0107960E94A7066FE772E0CE01019636
:1021E0000E94A706BE01695F7F4FCE0101960E9443
:1021F0005006CE0101960E94E304CE0107960E948C
:10220000E3040E9424102C960FB6F894DEBF0FBE94
:10221000CDBFDF91CF910895CF93DF93CDB7DEB7D8
:102220002C970FB6F894DEBF0FBECDBF67E872E003
:102230008BE894E00E948A040E940D030E940D0323
:102240000E940D0380916B0490916C046EE372E028
:10225000892B11F064E572E0CE0107960E94A70673
:102260006FE772E0CE0101960E94A706BE01695F8A
:102270007F4FCE0101960E945006CE0101960E942A
:10228000E304CE0107960E94E3040E9424102C96DA
:102290000FB6F894DEBF0FBECDBFDF91CF9108958A
:1022A000CF93DF93EC016EE673E00E941B0D60E7B5
:1022B00073E0CE0102960E943F0D80910201909141
:1022C0000301892B21F4DF91CF910C940C11DF9144
:1022D000CF910C9424104F925F926F927F928F92C5
:1022E0009F92AF92BF92CF92DF92EF92FF920F93A5
:1022F0001F93CF93DF93CDB7DEB762970FB6F894F5
:10230000DEBF0FBECDBF80912E0590912F05DC0161
:10231000ED91FC910084F185E02D099503970CF473
:10232000B5C080912E0590912F05DC01ED91FC91B7
:102330000284F385E02D099580934E050E940302E7
:1023400060934F057093500580935105909352050B
:1023500080914E05833201F180912E0590912F05D9
:10236000DC01ED91FC910284F385E02D09958093C9
:102370004E050E940302C0904F05D0905005E0909A
:102380005105F09052056C197D098E099F0965363B
:10239000710581059105E0F280914E05833209F0C7
:1023A00075C080912E0590912F05DC01ED91FC9177
:1023B0000284F385E02D0995809355050E94030260
:1023C00060934F057093500580935105909352058B
:1023D00081E08093530580912E0590912F05DC01BB
:1023E000ED91FC910084F185E02D09952091550532
:1023F00028171906B1F0ACF00E940302C0904F05F7
:10240000D0905005E0905105F09052056C197D096F
:102410008E099F096536710581059105E0F21092DC
:10242000530580915305882389F180912E05909161
:102430002F05DC01ED91FC910284F385E02D0995D7
:1024400080935405803559F08435B9F180932C057B
:102450008091550580932D050E94000017C0809142
:1024600028059091290590932B0580932A0580914A
:102470002E0590912F05DC01ED91FC910284F385EE
:10248000E02D0995909329058093280562960FB653
:10249000F894DEBF0FBECDBFDF91CF911F910F919A
:1024A000FF90EF90DF90CF90BF90AF909F908F9074
:1024B0007F906F905F904F90089580912E0590913E
:1024C0002F05DC01ED91FC910284F385E02D099547
:1024D000FC01FF27E038F105C8F6EF58FD4E0C94DB
:1024E0005928F1120F132D134B136913771385130A
:1024F0009313A113BF13DD13FB1319142714351401
:102500004314511454146E14AD14D41424157315BB
:102510002216251601170417171748177917AA1737
:10252000DB170C183D186E189F18D0183E196F193C
:1025300091199419AE19BD19C019DB19DF19EF19DA
:10254000121A4612351A651A791A7D1A811A911AC9
:10255000A11AA51AA91AAD1AB11AB51AB91ABD1A33
:10256000C11A591B5D1B731B771B7B1B7F1B831BB6
:10257000871B8B1B8F1B931BC51BE21BE61BEA1BD8
:10258000051C201C3B1C561C5A1C5E1C621C661C35
:10259000701C7A1C851C891CCD1CDD1CED1CF11CDB
:1025A000F51CF91CFD1C011D051D091D0D1D111D2E
:1025B000151D191D1D1D211D251D291D2D1D311D1B
:1025C000351D391D3D1D411D451D491D4D1D511D0B
:1025D000551D591D5D1D611D651D691D6D1D711DFB
:1025E000751D80916B0490916C04009789F467E6E7
:1025F00074E086E690E00E94780B60916704709129
:1026000068048091690490916A040E94070E3ECF8D
:10261000019799F767E674E08AEC90E0ECCF80913F
:102620006B0490916C04009789F467E674E080E78E
:1026300090E00E94780B609167047091680480912B
:10264000690490916A040E94070E20CF019799F7C0
:1026500067E674E084ED90E0ECCF80916B0490919C
:102660006C04009789F467E674E08AE790E00E94C2
:10267000780B60916704709168048091690490916F
:102680006A040E94070E02CF019799F767E674E08B
:102690008EED90E0ECCF80916B0490916C040097EC
:1026A00089F467E674E084E890E00E94780B60911A
:1026B0006704709168048091690490916A040E9493
:1026C000070EE4CE019799F767E674E088EE90E094
:1026D000ECCF80916B0490916C04019729F488EC05
:1026E00090E00E945011D2CE84E690E0FACF809123
:1026F0006B0490916C04019729F482ED90E00E94A4
:102700005011C4CE8EE690E0FACF80916B04909188
:102710006C04019729F48CED90E00E945011B6CE24
:1027200088E790E0FACF80916B0490916C04019758
:1027300029F486EE90E00E945011A8CE82E890E045
:10274000FACF80916B0490916C04009789F467E64E
:1027500074E08EE890E00E94780B609167047091BD
:1027600068048091690490916A040E94070E8ECEDD
:10277000019799F767E674E082EF90E0ECCF8091E3
:102780006B0490916C04009789F467E674E088E923
:1027900090E00E94780B60916704709168048091CA
:1027A000690490916A040E94070E70CE019799F710
:1027B00067E674E08CEF90E0ECCF80916B04909131
:1027C0006C04009789F467E674E082EA90E00E9466
:1027D000780B60916704709168048091690490910E
:1027E0006A040E94070E52CE019799F767E674E0DB
:1027F00086E091E0ECCF80916B0490916C0400979F
:1028000089F467E674E08CEA90E00E94780B6091AE
:102810006704709168048091690490916A040E9431
:10282000070E34CE019799F767E674E080E191E0F6
:10283000ECCF80916B0490916C04019729F480EFA8
:1028400090E00E94501122CE8CE890E0FACF809167
:102850006B0490916C04019729F48AEF90E00E9438
:10286000501114CE86E990E0FACF80916B049091DC
:102870006C04019729F484E091E00E94501106CE87
:1028800080EA90E0FACF80916B0490916C040197FC
:1028900029F48EE091E00E945011F8CD8AEA90E090
:1028A000FACF0E940000F2CD8091650490916604F9
:1028B000892B79F481E090E090936604809365041D
:1028C00065E674E082E390E00E941B0D0E949D0982
:1028D000DDCD1092660410926504F2CF6BE771E0D3
:1028E000CE0101960E94A706CE0101960E94791D95
:1028F0006B01CE0101960E94E304B5EBCB16D10427
:1029000044F5E4EBCE0ED11CB601DD0C880B990B1F
:102910000E94B325209118013091190140911A01AC
:1029200050911B010E941226209114013091150133
:1029300040911601509117010E941E276093670471
:10294000709368048093690490936A040E94070E50
:102950009DCDF4EBCF1AD108D7CF1092610410921D
:102960006204109263041092640410925D04109249
:102970005E0410925F041092600410925904109249
:102980005A0410925B0410925C0462E972E08BE8D6
:1029900094E00E948A040E940D030E940D030E948D
:1029A0000D030E94B80672CD6DE972E08BE894E0E9
:1029B0000E948A040E940D030E940D030E940D03D1
:1029C0000E94D30FBC01990F880B990B0E94B3256D
:1029D00025EE3FEF4FE95BE30E941226609361040E
:1029E00070936204809363049093640407E214E09C
:1029F00027E04AE00E94E622B801CE010D960E942F
:102A0000A706BE01635F7F4FCE0101960E949E061E
:102A100068EA72E0CE0107960E94A706BE016F5FCA
:102A20007F4FCE0107960E945006CE0107960E9466
:102A3000E304CE0101960E94E3040E94B806CE0191
:102A40000D960E94E30422CD80916104909162046E
:102A5000A0916304B09164048093140190931501D4
:102A6000A0931601B093170180915D0490915E04CC
:102A7000A0915F04B09160048093100190931101C4
:102A8000A0931201B09313018091590490915A04BC
:102A9000A0915B04B0915C0480931801909319019C
:102AA000A0931A01B0931B0161E674E08AE090E004
:102AB0000E943F0D6DE574E084E190E00E943F0DBF
:102AC00069E574E08EE190E00E943F0D6FEA72E0EC
:102AD0008BE894E00E948A040E940D030E940D037B
:102AE0000E940D03D3CC64E771E0CE0101960E94F1
:102AF000A706CE0101960E94791D70930F01609385
:102B00000E01CE0101960E94E30460910E017091C6
:102B10000F01072E000C880B990B0E94B32523E3AD
:102B200033E343E250E40E9412260E94FC27709394
:102B30000F0160930E016BE771E0CE0101960E94D8
:102B4000A706CE0101960E94791D70930D01609336
:102B50000C01CE0101960E94E30460910C0170917A
:102B60000D01072E000C880B990B0E94B32523E35F
:102B700033E343E250E40E9412260E94FC27709344
:102B80000D0160930C0162E871E0CE0101960E9494
:102B9000A706CE0101960E94791D70930B016093E8
:102BA0000A01CE0101960E94E30469E871E0CE01BA
:102BB00001960E94A706CE0101960E94791D70938E
:102BC000090160930801CE0101960E94E30460911F
:102BD000080170910901072E000C880B990B0E94C7
:102BE000B32523E333E343E250E40E9412260E941C
:102BF000FC2770930901609308016EE071E088E2A0
:102C000090E00E941B0D6CE071E08AE290E00E946F
:102C10001B0D6AE071E08CE290E00E941B0D68E001
:102C200071E088E390E00E941B0D6FEA72E08BE890
:102C300094E00E948A040E940D030E940D030E94EA
:102C40000D0324CC0E94000021CC6AEB72E08BE8DB
:102C500094E00E948A040E940D030E940D030E94CA
:102C60000D030E94D30FBC01990F880B990B0E9492
:102C7000B32525EE3FEF4FE95BE30E9412266093F8
:102C80005D0470935E0480935F0490936004C09031
:102C90006104D0906204E0906304F0906404A701A2
:102CA00096010E941D2720E030E041EE53E40E948F
:102CB0008A276093590470935A0480935B0490931D
:102CC0005C0407E214E027E04AE0C701B6010E9475
:102CD000E622B801CE010D960E94A706BE01635FF1
:102CE0007F4FCE0101960E949E0668EA72E0CE01F7
:102CF00007960E94A706BE016F5F7F4FCE01079621
:102D00000E945006CE0107960E94E304CE01019670
:102D10000E94E30460915D0470915E0480915F0401
:102D20009091600427E04AE00E94E622B801CE01BB
:102D300001960E94A706BE016F5F7F4FCE010D96E0
:102D40000E949804CE0101960E94E304BE01635FD5
:102D50007F4FCE0101960E949E0665EC72E0CE0187
:102D600007960E94A706BE016F5F7F4FCE010796B0
:102D70000E945006CE0107960E94E304CE01019600
:102D80000E94E3046091590470915A0480915B049D
:102D900090915C0427E04AE00E94E622B801CE014F
:102DA00001960E94A706BE016F5F7F4FCE010D9670
:102DB0000E949804CE0101960E94E304BE01635F65
:102DC0007F4FCE0101960E949E066CEC72E0CE0110
:102DD00007960E94A706BE016F5F7F4FCE01079640
:102DE0000E945006CE0107960E94E304CE01019690
:102DF0000E94E3040E94B806CE010D960E94E304EF
:102E000045CB0E94000042CB6BE672E0CE010196FA
:102E10000E94A7064FEF57E860E070E0CE010196F0
:102E20000E94DC05CE0101960E94E3042FCB69E7E6
:102E300074E0CE0101960E949E066AE472E0CE0123
:102E400001960E941305BC0189E794E00E94C50524
:102E5000CE0101960E94E30469E774E0CE01019679
:102E60000E949E0664ED72E0CE0107960E94A706BE
:102E7000BE016F5F7F4FCE0107960E945006CE01C4
:102E800007960E94E304CE0101960E94E304FECA65
:102E900069E774E0CE0101960E949E0660E672E04A
:102EA000CE0101960E941305BC0189E794E00E94BF
:102EB000C505CE0101960E94E30469E774E0CE01E6
:102EC00001960E949E0664ED72E0CE0107960E9474
:102ED000A706BE016F5F7F4FCE0107960E94500686
:102EE000CE0107960E94E304CE0101960E94E304FE
:102EF000CDCA69E774E0CE0101960E949E0667E69E
:102F000073E0CE0101960E941305BC0189E794E0AD
:102F10000E94C505CE0101960E94E30469E774E0B2
:102F2000CE0101960E949E0664ED72E0CE010796E6
:102F30000E94A706BE016F5F7F4FCE0107960E94D9
:102F40005006CE0107960E94E304CE0101960E942E
:102F5000E3049CCA69E774E0CE0101960E949E06D4
:102F60006CEF72E0CE0101960E941305BC0189E767
:102F700094E00E94C505CE0101960E94E30469E732
:102F800074E0CE0101960E949E0664ED72E0CE01CF
:102F900007960E94A706BE016F5F7F4FCE0107967E
:102FA0000E945006CE0107960E94E304CE010196CE
:102FB0000E94E3046BCA69E774E0CE0101960E94A7
:102FC0009E0668E073E0CE0101960E941305BC01E5
:102FD00089E794E00E94C505CE0101960E94E304B2
:102FE00069E774E0CE0101960E949E0664ED72E0EE
:102FF000CE0107960E94A706BE016F5F7F4FCE01EC
:1030000007960E945006CE0107960E94E304CE0167
:1030100001960E94E3043ACA69E774E0CE01019682
:103020000E949E0665E372E0CE0101960E941305A0
:10303000BC0189E794E00E94C505CE0101960E947B
:10304000E30469E774E0CE0101960E949E0664EDF8
:1030500072E0CE0107960E94A706BE016F5F7F4F08
:10306000CE0107960E945006CE0107960E94E30407
:10307000CE0101960E94E30409CA69E774E0CE011B
:1030800001960E949E066FE373E0CE0101960E94B6
:103090001305BC0189E794E00E94C505CE010196A5
:1030A0000E94E30469E774E0CE0101960E949E0647
:1030B00064ED72E0CE0107960E94A706BE016F5F25
:1030C0007F4FCE0107960E945006CE0107960E94C0
:1030D000E304CE0101960E94E304D8C969E774E0D5
:1030E000CE0101960E949E066FE471E0CE0101962A
:1030F0000E941305BC0189E794E00E94C505CE013A
:1031000001960E94E30469E774E0CE0101960E94F3
:103110009E0664ED72E0CE0107960E94A706BE01EE
:103120006F5F7F4FCE0107960E945006CE01079633
:103130000E94E304CE0101960E94E304A7C969E757
:1031400074E0CE0101960E949E066EE573E0CE010A
:1031500001960E941305BC0189E794E00E94C50511
:10316000CE0101960E94E30469E774E0CE01019666
:103170000E949E0664ED72E0CE0107960E94A706AB
:10318000BE016F5F7F4FCE0107960E945006CE01B1
:1031900007960E94E304CE0101960E94E30476C9DB
:1031A00080917D0490917E04892B09F46FC98091F0
:1031B000790490917A04DC012C91222309F466C9E8
:1031C000009709F454C00E9404236936B1E07B07DC
:1031D00018F5CB01653B71050CF04DC08C549F4F29
:1031E000BC01990F880B990B0E94B32520911801FF
:1031F0003091190140911A0150911B010E94122631
:103200002091140130911501409116015091170140
:103210000E941E270E94070E64E673E089E794E08F
:103220000E94BB0569E774E0CE0107960E949E06E6
:1032300064ED72E0CE0101960E94A706BE01695FAF
:103240007F4FCE0101960E945006CE0101960E944A
:10325000E304CE0107960E94E30480910601909159
:103260000701892B09F012C90E940C110FC960E0F7
:1032700070E0CB01AACF845B9109B2CF69E774E01B
:10328000CE0101960E949E0669E272E0CE0101968F
:103290000E941305BC0189E794E00E94C505CE0198
:1032A00001960E94E30469E774E0CE0101960E9452
:1032B0009E0664ED72E0CE0107960E94A706BE014D
:1032C0006F5F7F4FCE0107960E945006CE01079692
:1032D0000E94E304CE0101960E94E304D7C864E68D
:1032E00073E089E794E00E94BB0569E774E0CE01D2
:1032F00001960E949E0664ED72E0CE0107960E9440
:10330000A706BE016F5F7F4FCE0107960E94500651
:10331000CE0107960E94E304CE0101960E94E304C9
:10332000B5C80E940000B2C880912504909126047F
:10333000892B79F481E090E0909326048093250412
:1033400065E274E080E390E00E941B0D0E949D09FD
:103350009DC81092260410922504F2CF6BED72E006
:103360008BE894E00E948A040E940D030E940D03E2
:103370000E940D030E949D0989C80E94000086C812
:103380008091230490912404892B81F481E090E0C2
:10339000909324048093230463E274E08EE290E02F
:1033A0000E941B0D0E949D090C9446121092240449
:1033B00010922304F1CF0E9400000C9446128091D9
:1033C0002104909122040E94C40360E08CE00E94DA
:1033D0004B0160E088E00E944B010C944612109271
:1033E000200410921F0480910801909109010E940D
:1033F000C40361E08CE00E944B010E946B1180913C
:103400001F049091200401969093200480931F0440
:103410008031974291F70E946F0D10922004109214
:103420001F04EBCF1092200410921F04809108011A
:10343000909109010E94C40361E088E00E944B0161
:103440000E946B1180911F0490912004019690932B
:10345000200480931F048031974291F70E946F0DE2
:103460001092200410921F04EBCF64E771E0CE01AC
:1034700001960E94A706CE0101960E94791D7093C5
:10348000090160930801CE0101960E94E304609156
:10349000080170910901072E000C880B990B0E94FE
:1034A000B32523E333E343E250E40E9412260E9453
:1034B000FC27709309016093080168E071E088E3DC
:1034C00090E00E941B0D0C94461266EE72E08BE8B1
:1034D00094E00E948A040E940D030E940D030E9442
:1034E0000D030E949D090E94B5080E9414080C94C7
:1034F00046120E9400000C9446120E9400000C9498
:10350000461262EF72E08BE894E00E948A040E9407
:103510000D030E940D030E940D030E94B5080C9438
:1035200046126EEF72E08BE894E00E948A040E94DB
:103530000D030E940D030E940D030E9414080C94B9
:1035400046120E9400000C9446120E9400000C9447
:1035500046120E9400000C9446120E9400000C9437
:1035600046120E9400000C9446120E9400000C9427
:1035700046120E9400000C9446120E9400000C9417
:1035800046126AE073E08BE894E00E948A040E948D
:103590000D030E940D030E940D0360910C017091B8
:1035A0000D01072E000C880B990B0E94B32523E315
:1035B00033E343E250E40E948A270E94FC274B0138
:1035C0006091080170910901072E000C880B990B7E
:1035D0000E94B32523E333E343E250E40E948A27A9
:1035E0000E94FC276B0160910E0170910F01072E64
:1035F000000C880B990B0E94B32523E333E343E2CD
:1036000050E40E948A270E94FC272B01770F66084E
:10361000770867E372E0CE0101960E94A706B30126
:10362000A201CE0101960E94DC05CE0101960E9406
:10363000E30465E173E0CE0101960E94A706A401B0
:10364000990C660B770BCE0101960E94DC05CE012A
:1036500001960E94E30480900A0190900B01092CCE
:10366000000CAA08BB086CE173E0CE0101960E9431
:10367000A706B501A401CE0101960E94DC05CE018A
:1036800001960E94E30463E273E0CE0101960E947A
:10369000A706A601DD0C660B770BCE0101960E94F2
:1036A000DC05CE0101960E94E3040E9472070C948F
:1036B00046120E9400000C94461281E090E0909324
:1036C0001E0480931D046AE273E08BE894E00E947C
:1036D0008A040E940D030E940D030E940D030E94A4
:1036E0009E0B0C9446120E949E0B0C9446120E9454
:1036F00000000C9446120E9400000C9446120E9496
:1037000000000C9446120E9400000C9446120E9485
:1037100000000C9446120E9400000C9446120E9475
:1037200000000C94461280916B0490916C04892BDC
:1037300029F581E090E090936C0480936B0464E53C
:1037400072E0CE0101960E94A7066FE772E0CE01FB
:1037500007960E94A706BE016F5F7F4FCE010796B6
:103760000E945006CE0107960E94E304CE01019606
:103770000E94E3040E9424100C94461210926C04E0
:1037800010926B046EE372E0DCCF80911B04909189
:103790001C04009781F481E090E090931C048093D6
:1037A0001B046BE174E08EE390E00E941B0D0E940D
:1037B000B5080C9446120197A1F710921C041092C0
:1037C0001B04EFCF0E9400000C9446120E940000E0
:1037D0000C9446128091190490911A04892B81F45B
:1037E00081E090E090931A048093190469E174E0F9
:1037F0008AE390E00E941B0D0E9414080C9446126C
:1038000010921A0410921904F1CF80910401909142
:103810000501892B81F481E090E09093050180936C
:10382000040164E071E08CE390E00E941B0D0E94B3
:1038300014080C9446121092050110920401F1CF65
:103840008091020190910301892B81F481E090E045
:10385000909303018093020162E071E084E390E0C1
:103860000E941B0D0E94B5080C9446121092030191
:1038700010920201F1CF8091060190910701892BEE
:1038800081F481E090E0909307018093060166E067
:1038900071E086E390E00E941B0D0E94B5080C9435
:1038A00046121092070110920601F1CF0E940C11EE
:1038B0000C9446120E94C6100C9446120E948C046E
:1038C0000C9446120E94850A0C944612809165045D
:1038D00090916604892B21F40E94C6100C94461224
:1038E0008091230490912404892B21F40E948C045C
:1038F0000C9446128091250490912604892B09F09E
:10390000B3CC0E94850A0C9446120E9400000C94CD
:10391000461265E373E08BE894E00E948A040E94FB
:103920000D030E940D030E940D0365E874E0CE01B3
:1039300001960E949E0661E473E0CE0107960E9404
:10394000A706BE016F5F7F4FCE0107960E9450060B
:10395000CE0107960E94E304CE0101960E94E30483
:103960006FE774E0CE0101960E949E066EE571E05D
:10397000CE0107960E94A706BE016F5F7F4FCE0162
:1039800007960E945006CE0107960E94E304CE01DE
:1039900001960E94E3040C94461268E473E08BE8FD
:1039A00094E00E948A040E940D030E940D030E946D
:1039B0000D030E94B8060C94461264E573E08BE890
:1039C00094E00E948A040E940D030E940D030E944D
:1039D0000D030E9472070C9446120E9400000C9482
:1039E00046120E9400000C9446120E9400000C94A3
:1039F00046120E9400000C9446120E9400000C9493
:103A000046120E9400000C9446120E9400000C9482
:103A100046120E9400000C9446120E9400000C9472
:103A200046120E9400000C9446120E9400000C9462
:103A300046120E9400000C9446120E9400000C9452
:103A400046120E9400000C9446120E9400000C9442
:103A500046120E9400000C9446120E9400000C9432
:103A600046120E9400000C9446120E9400000C9422
:103A700046120E9400000C9446120E9400000C9412
:103A800046120E9400000C9446120E9400000C9402
:103A900046120E9400000C9446120E9400000C94F2
:103AA00046120E9400000C9446120E9400000C94E2
:103AB00046120E9400000C9446120E9400000C94D2
:103AC00046120E9400000C9446120E9400000C94C2
:103AD00046120E9400000C9446120E9400000C94B2
:103AE00046120E9400000C9446120E9400000C94A2
:103AF00046120F931F93CF93DF93BC0180E495E0B0
:103B00000E94C50581E39EEDABE0B0E080934A05DD
:103B100090934B05A0934C05B0934D050E94030272
:103B200060934F0570935005809351059093520513
:103B300080912E0590912F05DC01ED91FC91008480
:103B4000F185E02D0995892B01F10E940302009176
:103B50004F05109150052091510530915205601B81
:103B6000710B820B930B693E73408105910508F43C
:103B700007C181E39EEDABE0B0E080934A059093EE
:103B80004B05A0934C05B0934D0560E673E0809122
:103B90002E0590912F050E948A0460E475E08091C3
:103BA0002E0590912F050E94120263E571E080912D
:103BB0002E0590912F050E948A040E9403026093B3
:103BC0004F05709350058093510590935205809155
:103BD0002E0590912F05DC01ED91FC910084F1857B
:103BE000E02D09950897FCF40E94030200914F050F
:103BF000109150052091510530915205601B710BB9
:103C0000820B930B613971408105910500F381E3CB
:103C10009EEDABE0B0E080934A0590934B05A093F6
:103C20004C05B0934D0580912E0590912F05DC0138
:103C3000ED91FC910084F185E02D099508970CF435
:103C40009AC080912E0590912F05DC01ED91FC9199
:103C50000284F385E02D099580934E050E940302AE
:103C600060934F05709350058093510590935205D2
:103C700080914E058137C9F180912E0590912F05D5
:103C8000DC01ED91FC910084F185E02D0995892BF3
:103C900069F080912E0590912F05DC01ED91FC914A
:103CA0000284F385E02D099580934E050E9403025E
:103CB00000914F051091500520915105309152050A
:103CC000601B710B820B930B6536710581059105A5
:103CD00078F281E39EEDABE0B0E080934A059093EB
:103CE0004B05A0934C05B0934D0580914E0581374F
:103CF00009F041C0C6E4D5E080912E0590912F05D2
:103D0000DC01ED91FC910284F385E02D0995899306
:103D1000B5E0CA34DB0781F70E94030260934F05C8
:103D2000709350058093510590935205D0E0C0E008
:103D300080912E0590912F05DC01ED91FC9102847C
:103D4000F385E02D09958F3FB1F421960E9403027F
:103D500000914F0510915005209151053091520569
:103D6000601B710B820B930B693E734081059105BB
:103D700050F0239759F081E39EEDABE0B0E01AC01C
:103D80000E946B11D5CEC330D10591F680914805C4
:103D900090914905B0E0A0E0BA2FA92F982F88276D
:103DA00020914705822BBA2FA92F982F8827209181
:103DB0004605822B80934A0590934B05A0934C05B2
:103DC000B0934D0560914A0570914B0580914C056B
:103DD00090914D05DF91CF911F910F9108951F9202
:103DE0000F920FB60F9211242F933F938F939F93AF
:103DF000AF93BF938091110490911204A09113048A
:103E0000B09114043091100423E0230F2D3758F59E
:103E10000196A11DB11D209310048093110490936D
:103E20001204A0931304B09314048091150490918C
:103E30001604A0911704B09118040196A11DB11D9C
:103E40008093150490931604A0931704B09318045C
:103E5000BF91AF919F918F913F912F910F900FBE86
:103E60000F901F90189526E8230F0296A11DB11DF3
:103E7000D2CF1F920F920FB60F9211242F933F9320
:103E80004F935F936F937F938F939F93AF93BF9362
:103E9000EF93FF938BE894E00E949E02FF91EF91D5
:103EA000BF91AF919F918F917F916F915F914F9152
:103EB0003F912F910F900FBE0F901F9018951F925A
:103EC0000F920FB60F9211242F938F939F93EF931E
:103ED000FF93E0919B04F0919C048081E091A10408
:103EE000F091A20482FD1BC090818091A4048F5F99
:103EF0008F732091A504821741F0E091A404F0E0B3
:103F0000E557FB4F958F8093A404FF91EF919F910C
:103F10008F912F910F900FBE0F901F901895808159
:103F2000F4CF1F920F920FB60F9211242F933F934D
:103F30004F935F936F937F938F939F93AF93BF93B1
:103F4000EF93FF938091B900887F803609F44AC0CF
:103F5000F0F5883209F4A7C018F5803109F49BC048
:103F6000B8F4882309F4F9C0883009F494C0FF91AB
:103F7000EF91BF91AF919F918F917F916F915F91E1
:103F80004F913F912F910F900FBE0F901F9018955A
:103F9000883109F488C0803251F78093DD0314C062
:103FA000803409F49DC040F48033B9F38833F9F6C6
:103FB0008093DD0385ECB0C0803509F485C0883579
:103FC00009F496C0883499F60E940D0BD0CF883939
:103FD00009F48CC038F5883729F050F4883611F090
:103FE000803729F683E08093DE031092DC0357C00C
:103FF000883809F47BC0803919F0803809F0B7CFD0
:104000008091DC03803208F071C0E091DC0381E034
:104010008E0F8093DC038091BB00F0E0E454FC4FF2
:1040200080833DC0803B39F0E0F4803A09F479C0E8
:10403000883A09F09CCF84E08093DE031092BB03A2
:104040001092BA03E0910604F0910704099580915B
:10405000BA0381110FC081E08093BA0310929A03D2
:1040600009C0803C09F4A6CF883C09F4A3CF883B63
:1040700009F07DCFE091BB0381E08E0F8093BB03FD
:10408000F0E0E656FC4F80818093BB009091BB032B
:104090008091BA0329C0809103048093BB0085EC12
:1040A0008093BC0064CF9091020480910104981722
:1040B00058F5E091020481E08E0F80930204F0E055
:1040C000EF51FC4F8081E9CFE091020481E08E0F37
:1040D000809302048091BB00F0E0EF51FC4F80839D
:1040E00090910204809101049817C8F285E8D8CF16
:1040F000E091020481E08E0F809302048091BB0066
:10410000F0E0EF51FC4F80838091E00381115CCFA0
:1041100081E08093DF0384EA8093BC001092DE0389
:1041200026CF85EC8093BC001092DE038091DC03E7
:10413000803230F4E091DC03F0E0E454FC4F108274
:104140006091DC0370E0E0910404F09105048CEBD5
:1041500093E009951092DC030ACF1092DD0334CF6F
:10416000CF93DF93CBE8D4E01B821A8288EE93E0F2
:10417000A0E0B0E08C839D83AE83BF8326E231E074
:104180003983288325EC30E03D872C8724EC30E010
:104190003F872E8720EC30E0398B288B21EC30E0F4
:1041A0003B8B2A8B22EC30E03D8B2C8B26EC30E0D5
:1041B0003F8B2E8B198E1A8E1B8E1C8EEDE6F4E033
:1041C0001382128284839583A683B78388E391E068
:1041D0009183808364E673E080E395E00E94A70604
:1041E00064E673E08AE395E00E94A70664E673E064
:1041F00080E495E00E94A70664E673E086E595E01A
:104200000E94A706D0932F05C0932E0565E673E0A4
:1042100085E894E00E94A70669E673E08FE794E0E2
:104220000E94A70664E673E089E794E0DF91CF91EE
:104230000C94A706789484B5826084BD84B58160AF
:1042400084BD85B5826085BD85B5816085BD809161
:104250006E00816080936E001092810080918100D9
:1042600082608093810080918100816080938100D1
:10427000809180008160809380008091B100846093
:104280008093B1008091B00081608093B0008091F4
:104290007A00846080937A0080917A0082608093B3
:1042A0007A0080917A00816080937A0080917A0010
:1042B000806880937A001092C10010920B041092D3
:1042C0000A0410920904109208040E9459038FE016
:1042D00092E0909307048093060480E192E090932B
:1042E0000504809304048BE894E00E94050180910A
:1042F0002E0590912F050E94050164E670E080E094
:1043000090E00E94D1010E94030260934F057093D8
:104310005005809351059093520580912E05909100
:104320002F05DC01ED91FC910084F185E02D0995CC
:1043300018161906FCF40E94030200914F05109113
:1043400050052091510530915205601B710B820B75
:10435000930B613971408105910560F480912E05C0
:1043600090912F05DC01ED91FC910284F385E02D05
:104370000995D3CF64EF71E080E090E00E94D10115
:1043800083E00E942C0188E00E942C018CE00E94B6
:104390002C0160E088E00E944B0160E08CE00E940C
:1043A0004B0160E083E00E944B0160E071E088E037
:1043B00090E00E94640B8091000190910101892B93
:1043C00009F44EC06EE071E088E290E00E941B0D9F
:1043D0006CE071E08AE290E00E941B0D6AE071E0FF
:1043E0008CE290E00E941B0D63E274E08EE290E0AC
:1043F0000E941B0D65E274E080E390E00E941B0DBB
:1044000065E674E082E390E00E941B0D62E071E0DB
:1044100084E390E00E941B0D66E071E086E390E08B
:104420000E941B0D68E071E088E390E00E941B0D84
:1044300069E174E08AE390E00E941B0D64E071E0A2
:104440008CE390E00E941B0D6BE174E08EE390E042
:104450000E941B0D61E274E088E090E00E941B0D59
:1044600064E171E08AE090E00E94780B60E171E025
:1044700084E190E00E94780B68E171E08EE190E0C9
:104480000E94780B6EE071E088E290E00E94640B7D
:104490006CE071E08AE290E00E94640B6AE071E0F7
:1044A0008CE290E00E94640B63E274E08EE290E0A4
:1044B0000E94640B65E274E080E390E00E94640B6C
:1044C00065E674E082E390E00E94640B62E071E0D4
:1044D00084E390E00E94640B66E071E086E390E084
:1044E0000E94640B68E071E088E390E00E94640B36
:1044F00069E174E08AE390E00E94640B64E071E09B
:104500008CE390E00E94640B6BE174E08EE390E03A
:104510000E94640B80911B0490911C0490936C0486
:1045200080936B040E940C110E94030260930C04A0
:1045300070930D0480930E0490930F04C0E0D0E0BC
:104540000E946B110E94030200910C0410910D0453
:1045500020910E0430910F04601B710B820B930BA2
:104560006A3F71058105910560F00E946F0D0E9400
:10457000030260930C0470930D0480930E049093D7
:104580000F042097E9F20E948A028823C9F20E9450
:104590000000D6CF89E794E00E94E3048FE794E01F
:1045A0000E94E30485E894E00E94E30486E595E038
:1045B0000E94E30480E495E00E94E3048AE395E02E
:1045C0000E94E30480E395E00C94E304EF920F93E0
:1045D0001F93CF93DF93E80134E047FD34E1042ECD
:1045E000000C550B57FF03C0519541955109E32E1F
:1045F000022F242FAE010E946523CE01DF91CF91BF
:104600001F910F91EF9008951F93FC019927882720
:10461000BC01E89411911032E9F3193010F01E300A
:10462000C8F31B3251F01D3249F4689406C00E9451
:104630003623610F711D811D911D119110531A3088
:10464000B0F33EF490958095709561957F4F8F4FB4
:104650009F4F1F910895BB274A3031F4992322F4CC
:10466000BDE2909581959F4F0C944C23592F482F74
:10467000372F262F660F771F881F991F660F771F0A
:10468000881F991F620F731F841F951F660F771F66
:10469000881F991F0895BB27FB015527AA27880F5C
:1046A000991FAA1FA41710F0A41B83955051B9F7A6
:1046B000A05DAA3308F0A95DA193009779F7B11125
:1046C000B1931192CB010C949C25A9E0B0E0EBE6EC
:1046D000F3E20C94EC266A01F22EB02E102FFBE3CD
:1046E000AF2EA01608F41BE31F5F012F27E0AE01D9
:1046F0004F5F5F4F0E94C424BC018981982F99703D
:10470000913009F43FC09BE2E1FC04C09E2D917002
:10471000E0FC3AC05E2D5071E82FE87083FF46C080
:1047200084E0911101C083E0EF2DE81B8F1508F0A4
:10473000E0E0D6018E2F20E2552351F1992329F094
:10474000D6019C93C60101966C0196012D5F3F4FE7
:10475000E2FE24C08EE4D6018C9391E411969C93E2
:10476000119712968C93D9018E2F90E281111BC064
:10477000E20FF32FF11D10828EEF9FEF2996ECE0F0
:104780000C9408279DE2C6CF90E2C4CF2D938150B0
:104790008111FCCFCE0ED11CE0E0D0CF8EE6D60149
:1047A0008C9391E6DBCF9D938150E0CF482F4470EE
:1047B00082FF3DC084E0911101C083E08F1510F4A9
:1047C000EF2DE81BD6018E2F20E2552309F1992306
:1047D00029F0D6019C93C60101966C0196012D5FCC
:1047E0003F4FE2FE1BC089E4D6018C938EE4119604
:1047F0008C93119786E412968C93D9018E2F90E2B8
:10480000882309F4B5CF9D938150FACF2D93815021
:104810008111FCCFCE0ED11CE0E0D9CF89E6D601C4
:104820008C938EE611968C93119786E6E4CF9B01CC
:1048300077FF02C030E020E0A1E0B0E0911102C0BB
:10484000B0E0A0E0F9013196AE0FBF1F8B2C912C88
:10485000BB2009F461C05401EFEFAE1ABE0AAA0DE5
:10486000BB1DFA161B0619F014F04F2D4A1B5111EF
:1048700088C0E3FC59C07601A42FB0E2A1114FC05B
:10488000C40ED11C992309F45BC040E0D6011196F7
:10489000F60190836D01552309F448C0012F060FDE
:1048A0009A81582F507184FF03C0913309F401504D
:1048B00010160CF047C0093008F008E0EEE2FE2EBA
:1048C0005B01A01AB10885019194819491082F3F52
:1048D000320729F4D601FC92F60131966F01621776
:1048E000730794F1021713077CF5DB01A21BB30BCE
:1048F000AA24A394B12CAC0EBD1EAA0DBB1D11960B
:104900008C9121503109D601119628153905F4F002
:10491000F60180836D01DBCFB12CA12CA0CFF70174
:10492000B1937F01A150AACF9111B0CFD601942F9E
:1049300050E302C05D9391509111FCCFC40ED11C85
:1049400040E0ACCF01E0BACF80E3DBCF6217730762
:1049500031F4963388F4953311F4552369F0F60158
:104960008083FD01842F90E2811108C0A40FB11D46
:104970001C9290E080E002CF81E3F1CF91938150CF
:10498000F3CF911183CF8ACF283008F027E0332767
:10499000DA01990F311D87FD91600096610571055F
:1049A00039F432602E5F3D9330E32A95E1F70895A4
:1049B0009F3F30F080387105610509F03C5F3C5F36
:1049C0003D93913008F08068911DDF93CF931F9342
:1049D0000F93FF92EF92192F987F9695E92F969556
:1049E0009695E90FFF27EE53FF4F99273327EE24C3
:1049F000FF24A701E70105900894079428F4360FD7
:104A0000E71EF81E491F511D660F771F881F991F4B
:104A10000694A1F70590079428F4E70EF81E491FA5
:104A2000561FC11D770F881F991F661F0694A1F797
:104A30000590079428F4F80E491F561FC71FD11D73
:104A4000880F991F661F771F0694A1F7059007949A
:104A500020F4490F561FC71FD81F990F661F771FD5
:104A6000881F0694A9F784911095177041F0D69588
:104A7000C79557954795F794E7941A95C1F7E8E6D7
:104A8000F0E0689415901591359165919591059098
:104A90007FE27395E118F10A430B560BC90BD0095D
:104AA000C0F7E10CF11E431F561FC91FD01D7EF435
:104AB000703311F48A95E6CFE894015030F0080F76
:104AC0000AF40027021708F4202F2395022F7A33C7
:104AD00028F079E37D932A95E9F710C07D932A9514
:104AE00089F6069497956795379517951794E11869
:104AF000F10A430B560BC90BD00998F023957E9110
:104B000073957A3308F070E37C932013B8F77E91A5
:104B100070617D9330F0839571E37D9370E32A9506
:104B2000E1F71124EF90FF900F911F91CF91DF914A
:104B3000992787FD90950895DC01FC01672F7191FD
:104B40007723E1F7329704C07C916D937083629173
:104B5000AE17BF07C8F308950E94EE2508F481E060
:104B60000895E89409C097FB3EF490958095709560
:104B700061957F4F8F4F9F4F9923A9F0F92F96E9A9
:104B8000BB279395F695879577956795B795F1111E
:104B9000F8CFFAF4BB0F11F460FF1BC06F5F7F4FBB
:104BA0008F4F9F4F16C0882311F096E911C07723CD
:104BB00021F09EE8872F762F05C0662371F096E8D6
:104BC000862F70E060E02AF09A95660F771F881FA5
:104BD000DAF7880F9695879597F90895990F000849
:104BE000550FAA0BE0E8FEEF16161706E807F907BF
:104BF000C0F012161306E407F50798F0621B730B5A
:104C0000840B950B39F40A2661F0232B242B252BDA
:104C100021F408950A2609F4A140A6958FEF811D7D
:104C2000811D08950E9425260C9496260E948826B0
:104C300038F00E948F2620F0952311F00C947F26E7
:104C40000C94852611240C94CA260E94A72670F382
:104C5000959FC1F3950F50E0551F629FF001729F21
:104C6000BB27F00DB11D639FAA27F00DB11DAA1F30
:104C7000649F6627B00DA11D661F829F2227B00D7D
:104C8000A11D621F739FB00DA11D621F839FA00D08
:104C9000611D221F749F3327A00D611D231F849F58
:104CA000600D211D822F762F6A2F11249F575040AF
:104CB0009AF0F1F088234AF0EE0FFF1FBB1F661F2A
:104CC000771F881F91505040A9F79E3F510580F0F3
:104CD0000C947F260C94CA265F3FE4F3983ED4F3ED
:104CE000869577956795B795F795E7959F5FC1F797
:104CF000FE2B880F911D9695879597F9089597F942
:104D00009F6780E870E060E008959FEF80EC089571
:104D100000240A941616170618060906089500249A
:104D20000A9412161306140605060895092E039414
:104D3000000C11F4882352F0BB0F40F4BF2B11F488
:104D400060FF04C06F5F7F4F8F4F9F4F089557FDE7
:104D50009058440F551F59F05F3F71F04795880FE9
:104D600097FB991F61F09F3F79F087950895121680
:104D700013061406551FF2CF4695F1DF08C016162C
:104D800017061806991FF1CF8695710561050894DD
:104D90000895E894BB2766277727CB0197F90895F4
:104DA000F999FECF92BD81BDF89A992780B50895F3
:104DB000262FF999FECF1FBA92BD81BD20BD0FB637
:104DC000F894FA9AF99A0FBE019608952F923F929D
:104DD0004F925F926F927F928F929F92AF92BF920B
:104DE000CF92DF92EF92FF920F931F93CF93DF93B7
:104DF000CDB7DEB7CA1BDB0B0FB6F894DEBF0FBE14
:104E0000CDBF09942A88398848885F846E847D8460
:104E10008C849B84AA84B984C884DF80EE80FD8062
:104E20000C811B81AA81B981CE0FD11D0FB6F894D8
:104E3000DEBF0FBECDBFED0108955058BB27AA2796
:104E40000E9435270C9496260E94882638F00E94EE
:104E50008F2620F039F49F3F19F426F40C94852610
:104E60000EF4E095E7FB0C947F26E92F0E94A7261D
:104E700058F3BA17620773078407950720F079F48F
:104E8000A6F50C94C9260EF4E0950B2EBA2FA02D92
:104E90000B01B90190010C01CA01A0011124FF27E7
:104EA000591B99F0593F50F4503E68F11A16F040E2
:104EB000A22F232F342F4427585FF3CF46953795E1
:104EC0002795A795F0405395C9F77EF41F16BA0BA6
:104ED000620B730B840BBAF09150A1F0FF0FBB1F54
:104EE000661F771F881FC2F70EC0BA0F621F731F9D
:104EF000841F48F4879577956795B795F7959E3FFA
:104F000008F0B0CF9395880F08F09927EE0F97958A
:104F1000879508950E949E270C9496260E948F26BE
:104F200058F00E94882640F029F45F3F29F00C9445
:104F30007F2651110C94CA260C9485260E94A72620
:104F400068F39923B1F3552391F3951B550BBB27B8
:104F5000AA2762177307840738F09F5F5F4F220FFD
:104F6000331F441FAA1FA9F335D00E2E3AF0E0E8F4
:104F700032D091505040E695001CCAF72BD0FE2F3E
:104F800029D0660F771F881FBB1F261737074807D2
:104F9000AB07B0E809F0BB0B802DBF01FF2793588A
:104FA0005F4F3AF09E3F510578F00C947F260C94A9
:104FB000CA265F3FE4F3983ED4F3869577956795CC
:104FC000B795F7959F5FC9F7880F911D96958795BF
:104FD00097F90895E1E0660F771F881FBB1F6217DE
:104FE00073078407BA0720F0621B730B840BBA0B9C
:104FF000EE1F88F7E09508950E9403286894B11188
:105000000C94CA2608950E94AF2688F09F5798F006
:10501000B92F9927B751B0F0E1F0660F771F881FBD
:10502000991F1AF0BA95C9F714C0B13091F00E94D7
:10503000C926B1E008950C94C926672F782F8827D8
:10504000B85F39F0B93FCCF3869577956795B395FE
:10505000D9F73EF490958095709561957F4F8F4F6D
:105060009F4F08950E94EE2508F48FEF0895A1E266
:105070001A2EAA1BBB1BFD010DC0AA1FBB1FEE1FD2
:10508000FF1FA217B307E407F50720F0A21BB30B1D
:10509000E40BF50B661F771F881F991F1A9469F799
:1050A00060957095809590959B01AC01BD01CF01F5
:1050B0000895EE0FFF1F0590F491E02D09940F93D2
:1050C0001F93CF93DF938230910510F482E090E03C
:1050D000E0915E05F0915F0530E020E0B0E0A0E0F7
:1050E000309799F42115310509F44AC0281B390B72
:1050F00024303105D8F58A819B816115710589F1CC
:10510000FB0193838283FE0111C0408151810281A2
:10511000138148175907E0F04817590799F4109779
:1051200061F012960C93129713961C933296CF014E
:10513000DF91CF911F910F91089500935E05109319
:105140005F05F4CF2115310551F04217530738F0B0
:10515000A901DB019A01BD01DF01F801C1CFEF0117
:10516000F9CF90935F0580935E05CDCFFE01E20FEE
:10517000F31F819391932250310939832883D7CF2C
:1051800020915C0530915D05232B41F420911E0197
:1051900030911F0130935D0520935C0520911C0127
:1051A00030911D012115310541F42DB73EB74091D5
:1051B000200150912101241B350BE0915C05F091F9
:1051C0005D05E217F307A0F42E1B3F0B28173907E4
:1051D00078F0AC014E5F5F4F2417350748F04E0F53
:1051E0005F1F50935D0540935C05819391939FCF22
:1051F000F0E0E0E09CCFCF93DF930097E9F0FC0173
:10520000329713821282A0915E05B0915F05ED0185
:1052100030E020E01097A1F420813181820F931FAC
:1052200020915C0530915D052817390709F061C0B0
:10523000F0935D05E0935C05DF91CF910895EA015D
:10524000CE17DF07E8F54A815B819E0141155105C4
:10525000B1F7E901FB83EA8349915991C40FD51F46
:10526000EC17FD0761F4808191810296840F951FF0
:10527000E90199838883828193819B838A83F0E00B
:10528000E0E012968D919C9113970097B9F52D91BE
:105290003C911197CD010296820F931F20915C05DE
:1052A00030915D052817390739F6309751F510927E
:1052B0005F0510925E05B0935D05A0935C05BCCFC1
:1052C000D383C28340815181840F951FC817D907AA
:1052D00061F44E5F5F4F88819981480F591F518358
:1052E00040838A819B81938382832115310509F054
:1052F000B0CFF0935F05E0935E059ECFFD01DC012A
:10530000C0CF13821282D7CFB0E0A0E0EAE8F9E282
:105310000C94E8268C01009751F4CB010E945F2881
:105320008C01C801CDB7DEB7E0E10C940427FC0185
:10533000E60FF71F9C0122503109E217F30708F42A
:105340009DC0D901CD91DC911197C617D70798F070
:10535000C530D10530F3CE0104978617970708F3BF
:10536000C61BD70B2297C193D1936D937C93CF012A
:105370000E94FB28D6CF5B01AC1ABD0A4C018C0EF3
:105380009D1EA0915E05B0915F05512C412CF12C22
:10539000E12C109731F580915C0590915D058815A1
:1053A000990509F05CC04616570608F058C0809170
:1053B0001C0190911D01009741F48DB79EB740915B
:1053C000200150912101841B950BE817F90708F083
:1053D00055C0F0935D05E0935C05F901718360832E
:1053E000A0CF8D919C91119712966C901297139665
:1053F0007C901397A815B90559F56C0142E0C40ECD
:10540000D11CCA14DB0420F1AC014A195B09DA0192
:105410001296159780F06282738251834083D9017E
:105420006D937C93E114F10471F0D7011396FC9312
:10543000EE93129776CF22968C0F9D1FF9019183E0
:105440008083F301EFCFF0935F05E0935E0569CFB2
:105450004816590608F42C017D01D3019ACFCB01DF
:105460000E945F287C01009749F0AE01B8010E94BC
:10547000412AC8010E94FB28870153CF10E000E0B9
:1054800050CFFB01DC0102C001900D924150504011
:10549000D8F70895FB01DC018D910190801901106E
:1054A000D9F3990B0895FB01DC0101900D920020C6
:1054B000E1F7089510E0CAEDD0E004C0FE010E94BB
:0E54C00059282196CB3DD107C9F7F894FFCFAC
:1054CE00010001000100010080000500E1004B0019
:1054DE0022708F40FDFF333D199A213C000060057C
:1054EE00800000000000C00220024D0212037E0266
:1054FE005C02700200000000AC03A103BD03770341
:10550E009A03870378037061676520706167653859
:10551E00003D00FFFFFF00636D64003D2200743606
:10552E002E7478740074392E747874007431322E9F
:10553E00747874006E302E76616C006E312E76614A
:10554E006C006E322E76616C006E332E76616C00BE
:10555E0062372E62636F00456E61626C6564006235
:10556E00372E7478740044697361626C65640062EE
:10557E00382E62636F0062382E7478740062342E97
:10558E0062636F0062342E7478740062352E62632B
:10559E006F0062352E7478740062362E62636F006F
:1055AE0042616E6B20310062362E74787400426157
:1055BE006E6B20320062302E62636F0062302E748A
:1055CE0078740062312E62636F0062312E747874CB
:1055DE000062332E62636F0062332E747874007033
:1055EE0061676520706167653130007061676520A5
:1055FE007061676531360068302E76616C004D45FE
:10560E004D4F52592042414E4B2031007433302EB3
:10561E00747874004D454D4F52592042414E4B20E7
:10562E0032006E006E392E76616C006E312E706314
:10563E006F0062007061676520706167653000629F
:10564E0032312E7478740070616765207061676501
:10565E003200706167652070616765310070616747
:10566E00652070616765360074352E74787400702D
:10567E0061676520706167653300706167652070D2
:10568E00616765370074382E747874007431312E6A
:10569E007478740074312E747874007061676520AC
:1056AE00706167653900706167652070616765318B
:1056BE00320070616765207061676531340070611A
:1056CE0067652070616765313500706167652070B0
:1056DE00616765340068312E76616C0068322E7613
:1056EE00616C0068332E76616C00706167652070A6
:1056FE006167653500706167652070616765313778
:10570E000074342E74787400706167652070616760
:10571E0065323000706167652070616765313900F0
:0E572E006765742000312E33003133320000E5
:00000001FF
